:100026001FEF10936D0008951FEF10937000089551
:100036001FEF10936F000895219718E61F9310E0A5
:10004600312FE89440F84F91A0E0B0E050E088D618
:1000560018E61F93FE01A1E0B0E04F9172D6188119
:1000660005D80895219718E61F9311E0312FE894DB
:1000760040F84F91A0E0B0E050E072D618E61F932A
:10008600FE01A1E0B0E04F915CD61881EFD708954C
:10009600219718E61F9312E0312FE89440F84F910C
:1000A600A0E0B0E050E05CD618E61F93FE01A1E0A8
:1000B600B0E04F9146D618811F73D8D7089521977F
:1000C6001981DCD71F77188318E61F9310E01F935A
:1000D600E89440F8FE01A1E0B0E03F914F9150E076
:1000E6003FD6089521971981C9D7188318E61F931B
:1000F60011E01F93E89440F8FE01A1E0B0E03F91C3
:100106004F9150E02DD6089521971981B7D71F71C9
:10011600188318E61F9312E01F93E89440F8FE0137
:10012600A1E0B0E03F914F9150E01AD6089517E054
:1001360018BB18E317BB10E015BB1FE014BB10E09B
:1001460012BB1FEF11BB08950D2D1E2D1F7015BB81
:100156000D2D1E2D102F12BB089515B3107F15BB44
:1001660010E012BB0895F9DF11277BE0B71610F4F3
:10017600B3941FEF1095112309F410C010E0B12EAF
:10018600C398C59A000000000000C598C39AE2E72C
:10019600F0E001911191D02EE12E05C0C59A000024
:1001A60000000000C598E2E7F0E0EF93FF931B2DF7
:1001B600012F1127000F111FFF91EF91E00FF11F83
:1001C60001911191D02EE12EBFDF0895219709816B
:1001D6001A8116951695169516951883E2E7F0E09E
:1001E600EF93FF931881012F1127000F111FFF9125
:1001F600EF91E00FF11FEF93FF93E2E7F0E0EF934B
:10020600FF931881012F1127000F111FFF91EF9106
:10021600E00FF11F019111910F931F9309811A812C
:100226003F912F91022B132BFF91EF910193119385
:1002360008952497EAE0F0E0FA93EA9310E0108339
:100246001BE01A931081088101171FEF08F0112790
:10025600112309F019C0E2E7F0E0EF93FF931A2D9E
:10026600012F1127000F111FFF91EF91E00FF11FD2
:1002760010E000E001931193E981FA811081139552
:100286001083112309F0DFCF239610E018831D8118
:1002960005E031D6102F1A8310E019831D8105E081
:1002A6002AD61B831A81103009F013C0CF93DF932F
:1002B6001CE008E31A930A9389DFDF91CF91CF936D
:1002C600DF9310E10FE11A930A9380DFDF91CF915C
:1002D60044C0113009F001C003C0123009F013C048
:1002E600CF93DF931DE000EC1A930A936FDFDF9143
:1002F600CF91CF93DF931FE200EC1A930A9366DF48
:10030600DF91CF912AC0133009F001C003C0143029
:1003160009F023C0CF93DF931CE008E31A930A93F6
:1003260055DFDF91CF91CF93DF931FE100EC1A9356
:100336000A934CDFDF91CF91FE013396108113951E
:1003460010831D81193310E011F008F01FEF1123FF
:1003560009F402C011E0198300C01B81103009F0B6
:1003660001C003C01C3009F003C01FEF188300C191
:10037600113009F013C0CF93DF9310E20EE11A9308
:100386000A9324DFDF91CF91CF93DF931FE500E03F
:100396001A930A931BDFDF91CF91EAC0123009F05E
:1003A60013C0CF93DF931FE400E01A930A930EDF86
:1003B600DF91CF91CF93DF931FE500E01A930A9365
:1003C60005DFDF91CF91D4C0133009F013C0CF936E
:1003D600DF9310E30EEF1A930A93F8DEDF91CF91C5
:1003E600CF93DF931FE500E01A930A93EFDEDF91C8
:1003F600CF91BEC0143009F013C0CF93DF9310E441
:100406000FE71A930A93E2DEDF91CF91CF93DF9342
:100416001FE500E01A930A93D9DEDF91CF91A8C0B9
:10042600153009F01EC0CF93DF9310E20EE11A9348
:100436000A93CCDEDF91CF91CF93DF9310E500EEE8
:100446001A930A93C3DEDF91CF91CF93DF9310E522
:100456000FE01A930A93BADEDF91CF9111E0198368
:1004660087C0163009F00CC0CF93DF9310E50FE07C
:100476001A930A93ABDEDF91CF9111E0198378C00E
:10048600173009F01EC0CF93DF9310E20EE11A93E6
:100496000A939CDEDF91CF91CF93DF931FE500E0B7
:1004A6001A930A9393DEDF91CF91CF93DF9310E5F2
:1004B6000FE01A930A938ADEDF91CF9111E0198338
:1004C60057C0183009F015C0CF93DF9310E40FE73B
:1004D6001A930A937BDEDF91CF91CF93DF9310E5DA
:1004E60000EE1A930A9372DEDF91CF9111E0198321
:1004F6003FC0193009F00CC0CF93DF931FE30EEF16
:100506001A930A9363DEDF91CF9111E0198330C00D
:100516001A3009F015C0CF93DF931FE400E01A9359
:100526000A9354DEDF91CF91CF93DF9310E500EE6F
:100536001A930A934BDEDF91CF9111E0198318C00D
:100546001B3009F015C0CF93DF9310E20EE11A932A
:100556000A933CDEDF91CF91CF93DF9310E500EE57
:100566001A930A9333DEDF91CF9111E0198300C00D
:100576001E811F9319810F91100F1E831E8110304B
:1005860009F001C003C01C3009F00AC0CF93DF9305
:1005960010E70FE11A930A9319DEDF91CF91C9C0D4
:1005A600113009F001C003C01D3009F018C01881D0
:1005B600112309F40AC0CF93DF9313E600E81A93D8
:1005C6000A9304DEDF91CF9109C0CF93DF9313E640
:1005D60000EC1A930A93FADDDF91CF91AAC012308C
:1005E60009F001C003C01E3009F00AC0CF93DF93A3
:1005F60010E800EF1A930A93E9DDDF91CF9199C0D5
:10060600133009F001C003C01F3009F00AC0CF93B0
:10061600DF931FE600E01A930A93D8DDDF91CF91AE
:1006260088C0143009F001C003C0103109F00AC0B7
:10063600CF93DF931FE800E01A930A93C7DDDF919B
:10064600CF9177C0153009F001C003C0113109F010
:100656000AC0CF93DF9313E700EC1A930A93B6DD33
:10066600DF91CF9166C0163009F001C003C0123188
:1006760009F00AC0CF93DF9310E90EE31A930A93A9
:10068600A5DDDF91CF9155C0173009F001C003C039
:10069600133109F00AC0CF93DF9310E60EE71A93E1
:1006A6000A9394DDDF91CF9144C0183009F001C060
:1006B60003C0143109F00AC0CF93DF9310E80FE0AE
:1006C6001A930A9383DDDF91CF9133C0193009F075
:1006D60001C003C0153109F00AC0CF93DF9317E9B3
:1006E60000E81A930A9372DDDF91CF9122C01A3087
:1006F60009F001C003C0163109F00AC0CF93DF9399
:100706001FEA00E01A930A9361DDDF91CF9111C0D1
:100716001B3009F001C003C0173109F00AC0CF939E
:10072600DF931EE700E01A930A9350DDDF91CF9125
:1007360000C01881112309F409C0CF93DF9310EA92
:1007460000E71A930A9342DDDF91CF911E8115309F
:100756001FEF08F01127112309F40AC0CF93DF9386
:100766001FEB00EC1A930A9331DDDF91CF913EC067
:100776001E81183010E011F008F01FEF112309F464
:1007860035C01E811C301FEF08F01127112309F414
:1007960013C0CF93DF9310EA07E01A930A9316DD8E
:1007A600DF91CF91CF93DF9310EB0FE31A930A9368
:1007B6000DDDDF91CF911AC01E8113311FEF08F0B6
:1007C6001127112309F412C0CF93DF931FEB00E02A
:1007D6001A930A93FBDCDF91CF91CF93DF9310EB53
:1007E6000FE31A930A93F2DCDF91CF9108959FDC11
:1007F600CF93DF9308EE13E020E030E03A932A939C
:100806001A930A9304D3DF91CF9118D31FEF109355
:100816006E0014E110938B0010E8412A78941FEFC4
:1008260010937000CF93DF9307DCDF91CF91A12E59
:10083600CF93DF931A2D1A9342DCDF91CF9110915B
:100846006D00112309F40FC010E010936D001127FD
:10085600C4991FEF1095E894112309F0689418B312
:1008660014F918BB80DC10917000112309F424C020
:100876001AE010938B0010E010937000CF93DF9373
:10088600F1DBDF91CF9110938E00CF93DF9300DCE5
:10089600DF91CF9110938D00CF93DF9310918D0050
:1008A6001A9310918E001A9310E01A93C2DCDF910E
:1008B600CF911FEF1093710010916F00112309F46F
:1008C6008BC010E010936F001127B1991FEF1095A0
:1008D600112309F432C0EDE8F0E02497FB83EA83A4
:1008E60017E1198310E01883B4D32496CF93DF93CE
:1008F60010918D001A9308DCDF91CF91CF93DF938F
:1009060010E01A93DCDBDF91CF9110918D00CFD2EE
:1009160010E0B2D2CF93DF9310918D001A9310910D
:100926008E001A931FEF1A9384DCDF91CF911FEF8D
:100936001093710010E010936E001127B0991FEF0D
:100946001095112309F448C0EEE8F0E02497FB83E4
:10095600EA831BE3198310E018837BD324961123C3
:1009660009F40BC0EDE8F0E02497FB83EA8317E176
:10097600198310E018836DD32496CF93DF931091DB
:100986008D001A93C1DBDF91CF91CF93DF93109146
:100996008E001A93A7DBDF91CF91CF93DF9310E000
:1009A6001A938DDBDF91CF9110918E0077D210E0F4
:1009B60063D2CF93DF9310918D001A9310918E001E
:1009C6001A931FEF1A9335DCDF91CF911FEF109327
:1009D600710010E010936E0010916E00112309F45F
:1009E60081C01FEF00918A00002309F010951F9324
:1009F60010916E000F911023112309F473C0CF9349
:100A0600DF9310E005E01A930A9310E00FE01A93C3
:100A16000A9302D3DF91CF91102F10938A00EAE058
:100A2600F0E0FA93EA9310E010831BE01A9310812A
:100A3600088101171FEF08F01127112309F033C0B1
:100A4600E2E7F0E0EF93FF931A2D012F1127000F35
:100A5600111FFF91EF91E00FF11FEF93FF93E2E774
:100A6600F0E0EF93FF931A2D012F1127000F111FAE
:100A7600FF91EF91E00FF11F019111910F931F93D9
:100A8600B8D23F912F91020F131F0F7F1F70FF9156
:100A9600EF9101931193E981FA81108113951083E7
:100AA600112309F0C5CF2396112700918B0070E022
:100AB600701720F40A9500938B001FEF10951123F1
:100AC60009F410C010E010936E00CF93DF931091DD
:100AD6008D001A9310918E001A9310E01A93A9DBD9
:100AE600DF91CF91ACCE0000FECFF89410E000EC81
:100AF6001EBF0DBF1127E0E1F0E0A0E0B0E03196A7
:100B06000000319711F01D93FCCFA0E6B0E0E0E0C5
:100B1600F4E031960000319711F01D93FCCFC2EF3F
:100B2600D0E0F8941FE7412212EB1093600012BF49
:100B360015E013BF11E019BF10E010934F0018E045
:100B460010934E001093680010E00FEF10934B00C7
:100B560000934A0010936A000093690010E210B9EE
:100B66001FEF10936C004424552441CEEF93FF935E
:100B76000F931F931FB71F931091600002B7100FBA
:100B860012BF1FE7412200916B00002319F00A955E
:100B960000936B00AF93BF93E1E6F0E0A081B181D3
:100BA6001196A083B183A13751F4B23041F4A281EA
:100BB600B3811197A283B383112710831183A28176
:100BC600B381119604E610E0A017B10738F0A01B18
:100BD600B11BA283B383BF91AF9105C0A283B38338
:100BE600BF91AF9128C02F932227E5E6F0E0108150
:100BF600018113951C3308F412C010E0039511937C
:100C0600216011810C3368F000E013950193226096
:100C16000181183120F010E00395119303C0108371
:100C260001C000832F9304DA2F912F93217009F0CE
:100C3600FBD92F912F9110918A00112319F0115091
:100C460010938A0010E8412A1F911FBF1F910F9130
:100C5600FF91EF911895EF93FF930F931F931FB793
:100C66001F93DED91F911FBF1F910F91FF91EF9127
:100C7600189510E010936C0011B11C7F103011F420
:100C860010E916BF14EA16BF1AE010936B0016B7E8
:100C9600107831F410916B001123C9F716BF40C0CC
:100CA60011B11C7F183009F43BC038C011B11C7F4C
:100CB600183FE1F3103019F410E916BF000004E9FB
:100CC60006BF1FEF10936C00089543B914E816BFD2
:100CD6001AE010936B0016B7107829F410916B0088
:100CE6001123C9F71DC011B11C7F1832B9F0183194
:100CF600A9F0103499F014C014EC1197BAF209F463
:100D060014E816BF16B717FFFDCF11B11C7F1835B3
:100D160011F0103529F413B11193EECF1FEF08959A
:100D260011B11C7F103011F410E916BF10E00895C0
:100D3600412F9FDF8894441FC8DFB12FB7DF1B2FD9
:100D4600089597DF0894441FC0DF112321F0D4DFF4
:100D5600112309F0E3CFE4DF0FEF00936C00089551
:100D660088DF8894441FB1DF1123E1F0432FADDF04
:100D76001123C1F040FA26F4422FA7DF112391F088
:100D8600AA2311F4BB2361F0552311F4419106C047
:100D9600513011F4459102C09FD031961197EDCF95
:100DA60085DFBCCFBDDF0FEF00936C0011270895E0
:100DB600E89445F800E210E020E030E07B816A81AB
:100DC60059814881B2D0369527951795079536955E
:100DD60027951795079541E00FC0439536952795BA
:100DE600179507953695279517950795443020F45E
:100DF6003695279517950795222379F7332369F7B3
:100E0600512F463010F41FEF089510E008952DD0AD
:100E1600CFDF112309F40895152FF89410934B0092
:100E260000934A0010916800187F142B10934E000F
:100E36001093680047FC78941FEF089520E0F8941B
:100E460020934D0020934C00109158001061109390
:100E560058001091590010611093590010916800C4
:100E660010934E0047FC7894089510E010934E00BE
:100E760008951091650008951C3308F010E0F89469
:100E8600E1E6F0E0148310E01193119311931193AE
:100E960047FC789408951091660008951C3308F075
:100EA60010E01093660008951091670008951831B8
:100EB60008F010E01093670008952150304018F0B4
:100EC60011911D93FACF089547FC7894E199FCCFD0
:100ED600F894E199F9CF0895F7DFEEBBFFBBE09AEE
:100EE60000004DB347FC789408953F912F91012F50
:100EF6001F912F933F93332729E0111F2A9511F451
:100F0600032F0895331F301B18F4300F8894F5CF44
:100F16000894F3CFD801F9011F910F917F916F913A
:100F26005F914F910F931F9302C0D801F90145FAC3
:100F3600CEF48F2F8727E89487FF45F8F7FF08C080
:100F4600A095B095E095F095AF5FBF4FEF4FFF4F7F
:100F560077FF08C040955095609570954F5F5F4F3D
:100F66006F4F7F4F992788271124002410E276952A
:100F760067955795479520F48A0F9B1F0E1E1F1ED7
:100F860017940794979587957795679557954795FD
:100F96001A9589F78A019B01402D512D45FA86F451
:100FA600015010402040304080409040404050402A
:100FB6002095309510950095809590954095509583
:100FC6000895012FF5E5F123169515751F0FF3E327
:100FD600F1231695169513731F0FFFE0F12316954F
:100FE6001695169516951F701F0F117009F01FEFB5
:100FF6000895772031F4882021F413EB712E10E444
:10100600812E172D107DDDDF73FC1095111F771CC7
:10101600881C072D182D0895ECDF2A813B81A881B5
:10102600B981A217B307A1F020F4AA81BB81288158
:101036003981FD01E21BF30B0217130718F40E0F9B
:101046001F1FF7CFA017B10718F40E1B1F0BFACFFF
:101056000895EA81FB8100812981021718F01FEFAC
:10106600088102C00395112700830895012F0F7090
:10107600105110F0065FFCCF102F089500271A506C
:0E10860010F0005FFCCF165F100F0895189554
:1000000077C547C846C845C844C843C827C641C87D
:1000100040C8AFC53EC83DC83CC83BC83AC839C84F
:0600200038C837C836C8DD
:00000001FF
