:100026001FEF10936D0008951FEF10937000089551
:100036001FEF10936F000895219718E61F9310E0A5
:10004600312FE89440F84F91A0E0B0E050E0F8D6A8
:1000560018E61F93FE01A1E0B0E04F91E2D61881A9
:1000660096D80895219718E61F9311E0312FE8944A
:1000760040F84F91A0E0B0E050E0E2D618E61F93BA
:10008600FE01A1E0B0E04F91CCD6188180D808954A
:10009600219718E61F9312E0312FE89440F84F910C
:1000A600A0E0B0E050E0CCD618E61F93FE01A1E038
:1000B600B0E04F91B6D618811F7369D8089521977D
:1000C60019816DD81F77188318E61F9310E01F93C8
:1000D600E89440F8FE01A1E0B0E03F914F9150E076
:1000E600AFD60895219719815AD8188318E61F9319
:1000F60011E01F93E89440F8FE01A1E0B0E03F91C3
:100106004F9150E09DD608952197198148D81883BC
:1001160018E61F9312E01F93E89440F8FE01A1E051
:10012600B0E03F914F9150E08BD6089517E018BB91
:1001360018E317BB10E015BB1FE014BB10E012BBA1
:100146001FEF11BB089500911A0110911B011F703A
:1001560015BB00911A0110911B01102F12BB0895B7
:1001660015B3107F15BB10E012BB089511277BE075
:10017600B71610F4B3941FEF1095112309F412C0AB
:1001860010E0B12EC398C59A000000000000C59883
:10019600C39AE2E0F1E00191119100931A011093E4
:1001A6001B0105C0C59A000000000000C598D8DFF5
:1001B600E2E0F1E0EF93FF931B2D012F1127000FD3
:1001C600111FFF91EF91E00FF11F01911191009323
:1001D6001A0110931B01B7DF0895229710E000E083
:1001E60019830883E9E0F0E0FA93EA9310E01083BC
:1001F6001BE01A931081088101171FEF08F01127E1
:10020600112309F02DC0E2E7F0E0EF93FF931D8183
:10021600012F1127ACE0B0E0E89445F8EBD60F9338
:100226001F93192D012F11273F912F91020F131F95
:10023600FF91EF91E00FF11F1191112309F408C00E
:10024600FE013396EF93FF93192DBF91AF91AFD770
:10025600E981FA81108113951083112309F0CBCF20
:100266002396E2E0F1E0EF93FF931A81012F112725
:10027600000F111FFF91EF91E00FF11FEF93FF9316
:1002860008811981FF91EF910193119308952397A6
:100296001D810CE0A0D61A831D810CE09CD6102F80
:1002A60019831C810CE097D6102F1883E9E0F0E043
:1002B600FA93EA93EF93FF931B81FF91EF911083DB
:1002C600EF93FF931A81FF91EF911A9310810881A2
:1002D60001171FEF08F01127112309F027C0E2E7E5
:1002E600F0E0EF93FF931D81012F1127ACE0B0E002
:1002F600E89445F87FD60F931F93192D012F1127E8
:100306003F912F91020F131FFF91EF91E00FF11F05
:10031600EF93FF931E81FF91EF911193E981FA818B
:10032600108113951083112309F0D1CF23960895D8
:100336002397EAE0F0E0FA93EA9310E010831FE8CF
:100346001A931081088101171FEF08F01127112356
:1003560009F015C0E2E7F0E0EF93FF931A2D012FA5
:100366001127FF91EF91E00FF11F10E01193E98142
:10037600FA81108113951083112309F0E3CF239698
:10038600CF93DF9310E01A9311E01A931FEF1A939D
:100396007EDFDF91CF91CF93DF9313E01A9315E0C1
:1003A6001A931FEF1A9373DFDF91CF911C8105E03B
:1003B60012D6102F198310E018831C8105E00BD686
:1003C6001A831D810CE007D6102F1D831B81112374
:1003D60009F42EC01981103009F006C0E2E7F0E0FA
:1003E6003B961FEF119324C0113009F006C0E2E7D7
:1003F600F0E077961FEF11931BC0123009F006C08C
:10040600E2E7F0E0B3961FEF119312C0133009F044
:1004160006C0E2E7F0E0BF961FEF119309C0143063
:1004260009F006C0E2E7F0E0FB961FEF119300C06B
:100436001A81103009F00CC0CF93DF931BE61A9394
:100446001DE61A931FEF1A9322DFDF91CF912CC17D
:10045600113009F017C0CF93DF9317E01A931AE013
:100466001A931FEF1A9313DFDF91CF91CF93DF9388
:1004760018E21A931BE21A931FEF1A9308DFDF9113
:10048600CF9112C1123009F017C0CF93DF931BE052
:100496001A931EE01A931FEF1A93F9DEDF91CF919C
:1004A600CF93DF9318E21A931BE21A931FEF1A9366
:1004B600EEDEDF91CF91F8C0133009F017C0CF936D
:1004C600DF931AE11A9310E21A931FEF1A93DFDEF5
:1004D600DF91CF91CF93DF9318E21A931BE21A9321
:1004E6001FEF1A93D4DEDF91CF91DEC0143009F0EE
:1004F60017C0CF93DF931FE01A9315E11A931FEFEE
:100506001A93C5DEDF91CF91CF93DF9318E21A934A
:100516001BE21A931FEF1A93BADEDF91CF91C4C084
:10052600153009F024C0CF93DF9317E01A931AE031
:100536001A931FEF1A93ABDEDF91CF91CF93DF9320
:1005460011E21A9313E21A931FEF1A93A0DEDF91BA
:10055600CF91CF93DF931CE21A931FE21A931FEFFA
:100566001A9395DEDF91CF9111E018839DC0163066
:1005760009F00EC0CF93DF931CE21A931FE21A9381
:100586001FEF1A9384DEDF91CF9111E018838CC0A0
:10059600173009F024C0CF93DF9317E01A931AE0BF
:1005A6001A931FEF1A9373DEDF91CF91CF93DF93E8
:1005B60018E21A931BE21A931FEF1A9368DEDF9173
:1005C600CF91CF93DF931CE21A931FE21A931FEF8A
:1005D6001A935DDEDF91CF9111E0188365C0183064
:1005E60009F019C0CF93DF931FE01A9315E11A9310
:1005F6001FEF1A934CDEDF91CF91CF93DF9311E279
:100606001A9313E21A931FEF1A9341DEDF91CF91EB
:1006160011E0188349C0193009F00EC0CF93DF935B
:1006260016E11A9310E21A931FEF1A9330DEDF9148
:10063600CF9111E0188338C01A3009F019C0CF9352
:10064600DF931BE01A931EE01A931FEF1A931FDE27
:10065600DF91CF91CF93DF9311E21A9313E21A93AE
:100666001FEF1A9314DEDF91CF9111E018831CC09F
:100676001B3009F019C0CF93DF9317E01A931AE0E5
:100686001A931FEF1A9303DEDF91CF91CF93DF9377
:1006960011E21A9313E21A931FEF1A93F8DDDF9112
:1006A600CF9111E0188300C01D811F9318810F910F
:1006B600100F1D831A81103010E011F008F01FEFA3
:1006C6001F931D81113010E009F41FEF0F911023C5
:1006D600112309F40BC0CF93DF931AE31A931AE39D
:1006E6001A931FEF1A93D3DDDF91CF911D8110303E
:1006F60009F001C003C01C3009F00CC0CF93DF9392
:100706001EE51A9312E61A931FEF1A93C0DDDF91C6
:10071600CF91D1C0113009F001C003C01D3009F0DE
:100726000CC0CF93DF9317E31A9319E31A931FEFC5
:100736001A93ADDDDF91CF91BEC0123009F001C032
:1007460003C01E3009F00CC0CF93DF931EE31A934B
:1007560011E41A931FEF1A939ADDDF91CF91ABC084
:10076600133009F001C003C01F3009F00CC0CF934D
:10077600DF9312E41A9315E41A931FEF1A9387DD99
:10078600DF91CF9198C0143009F001C003C0103139
:1007960009F00CC0CF93DF9319E41A931CE41A9363
:1007A6001FEF1A9374DDDF91CF9185C0153009F0E4
:1007B60001C003C0113109F00CC0CF93DF9313E3DE
:1007C6001A9316E31A931FEF1A9361DDDF91CF9107
:1007D60072C0163009F001C003C0123109F00CC016
:1007E600CF93DF931DE41A9311E51A931FEF1A9323
:1007F6004EDDDF91CF915FC0173009F001C003C015
:10080600133109F00CC0CF93DF9318E51A931DE559
:100816001A931FEF1A933BDDDF91CF914CC018302E
:1008260009F001C003C0143109F00CC0CF93DF9367
:1008360014E51A9317E51A931FEF1A9328DDDF9133
:10084600CF9139C0193009F001C003C0153109F044
:100856000CC0CF93DF9316E61A9319E61A931FEF8F
:100866001A9315DDDF91CF9126C01A3009F001C029
:1008760003C0163109F00CC0CF93DF9313E61A9329
:1008860016E61A931FEF1A9302DDDF91CF9113C07C
:100896001B3009F001C003C0173109F00CC0CF931B
:1008A600DF9311E31A9313E31A931FEF1A93EFDC06
:1008B600DF91CF9100C0089539DCCF93DF9308EE26
:1008C60013E020E030E03A932A931A930A930FD369
:1008D600DF91CF9123D31FEF10936E0014E1109395
:1008E6001D0110E8412A78941FEF10937000CF93F2
:1008F600DF93A2DBDF91CF91A12ECF93DF931A2D49
:100906001A93DDDBDF91CF9110916D00112309F46D
:100916000FC010E010936D001127C4991FEF1095BA
:10092600E894112309F0689418B314F918BB1EDC77
:1009360010917000112309F427C01FEF10936E0069
:100946001AE010931D0110E010937000CF93DF930F
:1009560089DBDF91CF9110932001CF93DF9398DB52
:10096600DF91CF9110931F01CF93DF9310911F0159
:100976001A93109120011A9310E01A93D9DCDF9193
:10098600CF911FEF1093710010916F00112309F49E
:1009960075C010E010936F001127B1991FEF1095E5
:1009A600112309F432C0EFE1F1E02497FB83EA83D7
:1009B6001BE0198310E01883DDD32496CF93DF93D1
:1009C60010911F011A93A0DBDF91CF91CF93DF9394
:1009D60010E01A9374DBDF91CF9110911F01D7D2EB
:1009E60010E0BAD2CF93DF9310911F011A931091A2
:1009F60020011A931FEF1A939BDCDF91CF911FEF13
:100A06001093710010E010936E001127B0991FEF3C
:100A16001095112309F432C0E0E2F1E02497FB833C
:100A2600EA831BE3198310E01883A4D32496CF939B
:100A3600DF93109120011A9355DBDF91CF91CF936D
:100A4600DF9310E01A933BDBDF91CF9110912001E9
:100A560095D210E081D2CF93DF9310911F011A93A4
:100A6600109120011A931FEF1A9362DCDF91CF9148
:100A76001FEF1093710010E010936E0010916E003E
:100A8600112309F475C01FEF00911C01002309F022
:100A960010951F9310916E000F911023112309F4E6
:100AA60066C0CF93DF9310E005E01A930A9310E037
:100AB6000FE01A930A9341D3DF91CF91102F109331
:100AC6001C01EAE0F0E0FA93EA9310E010831BE0E1
:100AD6001A931081088101171FEF08F011271123BF
:100AE60009F033C0E2E0F1E0EF93FF931A2D012FF6
:100AF6001127000F111FFF91EF91E00FF11FEF93E8
:100B0600FF93E2E0F1E0EF93FF931A2D012F1127F7
:100B1600000F111FFF91EF91E00FF11F019111914D
:100B26000F931F93F7D20F7F10703F912F91020FF3
:100B3600131FFF91EF9101931193E981FA811081BF
:100B460013951083112309F0C5CF23961127009121
:100B56001D0170E0701720F40A9500931D011FEF28
:100B66001095112309F403C010E010936E002AC0FB
:100B760010917100112309F425C0EEE1F1E0FA931A
:100B8600EA9310E010831BE01A9310810881011785
:100B96001FEF08F01127112309F010C0CF93DF9340
:100BA60010911E011A9319DBDF91CF91E981FA8129
:100BB600108113951083112309F0E8CF239610E0D6
:100BC60010937100A1CE0000FECFF89411E002E56B
:100BD6001EBF0DBF1127E0E1F0E0A0E0B0E03196C6
:100BE6000000319711F01D93FCCFA0E6B0E0E0E0E5
:100BF600F4E031960000319711F01D93FCCFC4E864
:100C0600D1E0F8941FE7412212EB1093600012BF67
:100C160015E013BF11E019BF10E010934F0018E064
:100C260010934E001093680010E00FEF10934B00E6
:100C360000934A0010936A000093690010E210B90D
:100C46001FEF10936C004424552436CEEF93FF9388
:100C56000F931F931FB71F931091600002B7100FD9
:100C660012BF1FE7412200916B00002319F00A957D
:100C760000936B00AF93BF93E1E6F0E0A081B181F2
:100C86001196A083B183A13751F4B23041F4A28109
:100C9600B3811197A283B383112710831183A28195
:100CA600B381119604E610E0A017B10738F0A01B37
:100CB600B11BA283B383BF91AF9105C0A283B38357
:100CC600BF91AF9128C02F932227E5E6F0E010816F
:100CD600018113951C3308F412C010E0039511939B
:100CE600216011810C3368F000E0139501932260B6
:100CF6000181183120F010E00395119303C0108391
:100D060001C000832F9394D92F912F93217009F05E
:100D16008BD92F912F9110911C01112319F011508D
:100D260010931C0110E8412A1F911FBF1F910F91BC
:100D3600FF91EF911895EF93FF930F931F931FB7B2
:100D46001F936ED91F911FBF1F910F91FF91EF91B6
:100D5600189510E010936C0011B11C7F103011F43F
:100D660010E916BF14EA16BF1AE010936B0016B707
:100D7600107831F410916B001123C9F716BF40C0EB
:100D860011B11C7F183009F43BC038C011B11C7F6B
:100D9600183FE1F3103019F410E916BF000004E91A
:100DA60006BF1FEF10936C00089543B914E816BFF1
:100DB6001AE010936B0016B7107829F410916B00A7
:100DC6001123C9F71DC011B11C7F1832B9F01831B3
:100DD600A9F0103499F014C014EC1197BAF209F482
:100DE60014E816BF16B717FFFDCF11B11C7F1835D3
:100DF60011F0103529F413B11193EECF1FEF0895BA
:100E060011B11C7F103011F410E916BF10E00895DF
:100E1600412F9FDF8894441FC8DFB12FB7DF1B2FF8
:100E2600089597DF0894441FC0DF112321F0D4DF13
:100E3600112309F0E3CFE4DF0FEF00936C00089570
:100E460088DF8894441FB1DF1123E1F0432FADDF23
:100E56001123C1F040FA26F4422FA7DF112391F0A7
:100E6600AA2311F4BB2361F0552311F4419106C066
:100E7600513011F4459102C09FD031961197EDCFB4
:100E860085DFBCCFBDDF0FEF00936C0011270895FF
:100E9600E89445F800E210E020E030E07B816A81CA
:100EA60059814881D3D0369527951795079536955C
:100EB60027951795079541E00FC0439536952795D9
:100EC600179507953695279517950795443020F47D
:100ED6003695279517950795222379F7332369F7D2
:100EE600512F463010F41FEF089510E008952DD0CD
:100EF600CFDF112309F40895152FF89410934B00B2
:100F060000934A0010916800187F142B10934E002E
:100F16001093680047FC78941FEF089520E0F8943A
:100F260020934D0020934C001091580010611093AF
:100F360058001091590010611093590010916800E3
:100F460010934E0047FC7894089510E010934E00DD
:100F560008951091650008951C3308F010E0F89488
:100F6600E1E6F0E0148310E01193119311931193CD
:100F760047FC789408951091660008951C3308F094
:100F860010E01093660008951091670008951831D7
:100F960008F010E01093670008952150304018F0D3
:100FA60011911D93FACF089547FC7894E199FCCFEF
:100FB600F894E199F9CF0895F7DFEEBBFFBBE09A0D
:100FC60000004DB347FC789408953F912F91012F6F
:100FD6001F912F933F93332729E0111F2A9511F470
:100FE600032F0895331F301B18F4300F8894F5CF64
:100FF6000894F3CF9801442745FA86F4BD013702D9
:10100600F001269F80013603F40B100DE11DF41F3D
:101016007203F40B100DE11DF41F08953B9FF001C0
:101026002A9F80013A9F100DE11DF41F2B9F100D82
:10103600E11DF41F0895D801F9011F910F917F91C9
:101046006F915F914F910F931F9302C0D801F901E1
:1010560045FACEF48F2F8727E89487FF45F8F7FFE8
:1010660008C0A095B095E095F095AF5FBF4FEF4FE4
:10107600FF4F77FF08C040955095609570954F5F7C
:101086005F4F6F4F7F4F992788271124002410E266
:10109600769567955795479520F48A0F9B1F0E1EE8
:1010A6001F1E17940794979587957795679557957B
:1010B60047951A9589F78A019B01402D512D45FACE
:1010C60086F401501040204030408040904040401F
:1010D60050402095309510950095809590954095B7
:1010E60050950895012FF5E5F123169515751F0FF7
:1010F600F3E3F1231695169513731F0FFFE0F12303
:1011060016951695169516951F701F0F117009F0F6
:101116001FEF0895772031F4882021F413EB712E08
:1011260010E4812E172D107DDDDF73FC1095111F45
:10113600771C881C072D182D0895ECDF2A813B812A
:10114600A881B981A217B307A1F020F4AA81BB81B7
:1011560028813981FD01E21BF30B0217130718F4EE
:101166000E0F1F1FF7CFA017B10718F40E1B1F0B8A
:10117600FACF0895EA81FB8100812981021718F0D0
:101186001FEF088102C00395112700830895012FE0
:101196000F70105110F0065FFCCF102F0895002736
:1011A6001A5010F0005FFCCF165F100F08951F70E5
:1011B600183010F011961850E4EDF1E10024E10F1B
:1011C600F01DC8951C9110291C93089518950102CD
:0611D60004081020408017
:10000000E7C5E7C8E6C8E5C8E4C8E3C897C6E1C8DD
:10001000E0C81FC6DEC8DDC8DCC8DBC8DAC8D9C87E
:06002000D8C8D7C8D6C8FD
:00000001FF
