:100026001FEF10937C0008951FEF10937F00089533
:100036001FEF10937E000895219718E61F9310E096
:10004600312FE89440F84F91A0E0B0E050E0B8D8E6
:1000560018E61F93FE01A1E0B0E04F91A2D81881E7
:1000660044DA0895219718E61F9311E0312FE8949A
:1000760040F84F91A0E0B0E050E0A2D818E61F93F8
:10008600FE01A1E0B0E04F918CD818812EDA0895D8
:10009600219718E61F9312E0312FE89440F84F910C
:1000A600A0E0B0E050E08CD818E61F93FE01A1E076
:1000B600B0E04F9176D818811F7317DA089521970B
:1000C60019811BDA1F77188318E61F9310E01F9318
:1000D600E89440F8FE01A1E0B0E03F914F9150E076
:1000E6006FD808952197198108DA188318E61F93A7
:1000F60011E01F93E89440F8FE01A1E0B0E03F91C3
:100106004F9150E05DD8089521971981F6D91F7354
:10011600188318E61F9312E01F93E89440F8FE0137
:10012600A1E0B0E03F914F9150E04AD8089517E022
:1001360018BB18E317BB10E015BB1FE014BB10E09B
:1001460012BB1FEF11BB08950C2D1D2D1F7015BB83
:100156000C2D1D2D102F12BB089515B3107F15BB46
:1001660010E012BB0895F9DF11277BE0B71610F4F3
:10017600B3941FEF1095112309F410C010E0B12EAF
:10018600C398C59A000000000000C598C39AE1E82C
:10019600F0E001911191C02ED12E05C0C59A000044
:1001A60000000000C598E1E8F0E0EF93FF931B2DF7
:1001B600012F1127000F111FFF91EF91E00FF11F83
:1001C60001911191C02ED12EBFDF0895219709818B
:1001D6001A8116951695169516951883E1E8F0E09E
:1001E600EF93FF931881012F1127000F111FFF9125
:1001F600EF91E00FF11FEF93FF93E1E8F0E0EF934B
:10020600FF931881012F1127000F111FFF91EF9106
:10021600E00FF11F019111910F931F9309811A812C
:100226003F912F91022B132BFF91EF910193119385
:1002360008952497EAE0F0E0FA93EA9310E0108339
:100246001BE01A931081088101171FEF08F0112790
:10025600112309F019C0E1E8F0E0EF93FF931A2D9E
:10026600012F1127000F111FFF91EF91E00FF11FD2
:1002760010E000E001931193E981FA811081139552
:100286001083112309F0DFCF239610E018831D8118
:1002960005E070D8102F1A8310E019831D8105E040
:1002A60069D81B831A81103009F013C0CF93DF93EE
:1002B6001CE008E31A930A9389DFDF91CF91CF936D
:1002C600DF9310E10FE11A930A9380DFDF91CF915C
:1002D60044C0113009F001C003C0123009F013C048
:1002E600CF93DF931DE000EC1A930A936FDFDF9143
:1002F600CF91CF93DF931FE200EC1A930A9366DF48
:10030600DF91CF912AC0133009F001C003C0143029
:1003160009F023C0CF93DF931CE008E31A930A93F6
:1003260055DFDF91CF91CF93DF931FE100EC1A9356
:100336000A934CDFDF91CF91FE013396108113951E
:1003460010831D81193310E011F008F01FEF1123FF
:1003560009F402C011E0198300C01B81103009F0B6
:1003660001C003C01C3009F003C01FEF188300C191
:10037600113009F013C0CF93DF9310E20EE11A9308
:100386000A9324DFDF91CF91CF93DF931FE500E03F
:100396001A930A931BDFDF91CF91EAC0123009F05E
:1003A60013C0CF93DF931FE400E01A930A930EDF86
:1003B600DF91CF91CF93DF931FE500E01A930A9365
:1003C60005DFDF91CF91D4C0133009F013C0CF936E
:1003D600DF9310E30EEF1A930A93F8DEDF91CF91C5
:1003E600CF93DF931FE500E01A930A93EFDEDF91C8
:1003F600CF91BEC0143009F013C0CF93DF9310E441
:100406000FE71A930A93E2DEDF91CF91CF93DF9342
:100416001FE500E01A930A93D9DEDF91CF91A8C0B9
:10042600153009F01EC0CF93DF9310E20EE11A9348
:100436000A93CCDEDF91CF91CF93DF9310E500EEE8
:100446001A930A93C3DEDF91CF91CF93DF9310E522
:100456000FE01A930A93BADEDF91CF9111E0198368
:1004660087C0163009F00CC0CF93DF9310E50FE07C
:100476001A930A93ABDEDF91CF9111E0198378C00E
:10048600173009F01EC0CF93DF9310E20EE11A93E6
:100496000A939CDEDF91CF91CF93DF931FE500E0B7
:1004A6001A930A9393DEDF91CF91CF93DF9310E5F2
:1004B6000FE01A930A938ADEDF91CF9111E0198338
:1004C60057C0183009F015C0CF93DF9310E40FE73B
:1004D6001A930A937BDEDF91CF91CF93DF9310E5DA
:1004E60000EE1A930A9372DEDF91CF9111E0198321
:1004F6003FC0193009F00CC0CF93DF931FE30EEF16
:100506001A930A9363DEDF91CF9111E0198330C00D
:100516001A3009F015C0CF93DF931FE400E01A9359
:100526000A9354DEDF91CF91CF93DF9310E500EE6F
:100536001A930A934BDEDF91CF9111E0198318C00D
:100546001B3009F015C0CF93DF9310E20EE11A932A
:100556000A933CDEDF91CF91CF93DF9310E500EE57
:100566001A930A9333DEDF91CF9111E0198300C00D
:100576001E811F9319810F91100F1E831E8110304B
:1005860009F001C003C01C3009F00AC0CF93DF9305
:1005960010E70FE11A930A9319DEDF91CF91C9C0D4
:1005A600113009F001C003C01D3009F018C01881D0
:1005B600112309F40AC0CF93DF9313E600E81A93D8
:1005C6000A9304DEDF91CF9109C0CF93DF9313E640
:1005D60000EC1A930A93FADDDF91CF91AAC012308C
:1005E60009F001C003C01E3009F00AC0CF93DF93A3
:1005F60010E800EF1A930A93E9DDDF91CF9199C0D5
:10060600133009F001C003C01F3009F00AC0CF93B0
:10061600DF931FE600E01A930A93D8DDDF91CF91AE
:1006260088C0143009F001C003C0103109F00AC0B7
:10063600CF93DF931FE800E01A930A93C7DDDF919B
:10064600CF9177C0153009F001C003C0113109F010
:100656000AC0CF93DF9313E700EC1A930A93B6DD33
:10066600DF91CF9166C0163009F001C003C0123188
:1006760009F00AC0CF93DF9310E90EE31A930A93A9
:10068600A5DDDF91CF9155C0173009F001C003C039
:10069600133109F00AC0CF93DF9310E60EE71A93E1
:1006A6000A9394DDDF91CF9144C0183009F001C060
:1006B60003C0143109F00AC0CF93DF9310E80FE0AE
:1006C6001A930A9383DDDF91CF9133C0193009F075
:1006D60001C003C0153109F00AC0CF93DF9317E9B3
:1006E60000E81A930A9372DDDF91CF9122C01A3087
:1006F60009F001C003C0163109F00AC0CF93DF9399
:100706001FEA00E01A930A9361DDDF91CF9111C0D1
:100716001B3009F001C003C0173109F00AC0CF939E
:10072600DF931EE700E01A930A9350DDDF91CF9125
:1007360000C01881112309F409C0CF93DF9310EA92
:1007460000E71A930A9342DDDF91CF911E8115309F
:100756001FEF08F01127112309F40AC0CF93DF9386
:100766001FEB00EC1A930A9331DDDF91CF913EC067
:100776001E81183010E011F008F01FEF112309F464
:1007860035C01E811C301FEF08F01127112309F414
:1007960013C0CF93DF9310EA07E01A930A9316DD8E
:1007A600DF91CF91CF93DF9310EB0FE31A930A9368
:1007B6000DDDDF91CF911AC01E8113311FEF08F0B6
:1007C6001127112309F412C0CF93DF931FEB00E02A
:1007D6001A930A93FBDCDF91CF91CF93DF9310EB53
:1007E6000FE31A930A93F2DCDF91CF9108959FDC11
:1007F600CF93DF9308EE13E020E030E03A932A939C
:100806001A930A9334D5DF91CF9148D51FEF1093F1
:100816007D0014E110939A0010E8412A78941FEFA6
:1008260010937F00CF93DF9307DCDF91CF91A12E4A
:10083600CF93DF931A2D1A9342DCDF91CF9110E00C
:1008460010937B00C49810E01093800010917C00F8
:10085600112309F404C010E010937C0084DC5DD5FC
:100866001095112309F42DC010917F00112309F46E
:1008760027C0CF93DF93F6DBDF91CF9110939D00D6
:10088600CF93DF9305DCDF91CF9110939C001091FD
:100896009D0034D510919C003AD51AE010939A0029
:1008A60010E010937F00CF93DF9310919C001A9372
:1008B60010919D001A9310E01A93BBDCDF91CF9143
:1008C60044C010917F00112309F43FC014D5109342
:1008D6009D001AD510939C001AE010939A0010E020
:1008E60010937F00CF93DF9310919C001A93109181
:1008F6009D001A9310E01A939CDCDF91CF91109122
:100906007B001095112309F420C012E310939A007E
:100916001FEF10937D00CF93DF9310919C001A93E5
:10092600F3DBDF91CF91CF93DF9310919D001A9364
:10093600D9DBDF91CF91CF93DF93CBD41A93BFDB73
:10094600DF91CF911FEF10937B0010917F00112351
:1009560009F413C01AE010939A0010E010937F0078
:10096600CF93DF9310919C001A9310919D001A93D8
:1009760010E01A935EDCDF91CF91DBD4103010E0EB
:1009860011F008F01FEF1F9310917B0010950F9147
:100996001023112309F41BC01127B2991FEF11234D
:1009A60009F40BC000918100109182000D7F1F7F1A
:1009B60000938100109382000AC00091810010917B
:1009C60082000260106000938100109382001091F3
:1009D6007E00112309F49BC010E010937E009DD485
:1009E600E894112309F0689418B314F918BB112779
:1009F600B0991FEF1095112309F448C0EDE9F0E016
:100A06002497FB83EA831BE3198310E0188360D5E0
:100A16002496112309F40BC0ECE9F0E02497FB833C
:100A2600EA8317E1198310E0188352D52496CF93F1
:100A3600DF9310E01A9343DBDF91CF91CF93DF93DF
:100A460010919D001A934EDBDF91CF91CF93DF93E8
:100A560010919C001A9358DBDF91CF9110E03CD4A3
:100A660010919D004BD410919C0051D4CF93DF93ED
:100A760010919C001A9310919D001A931FEF1A93E0
:100A8600D8DBDF91CF9110E010937D001127B1994B
:100A96001FEF1095112309F43AC0ECE9F0E0249712
:100AA600FB83EA8317E1198310E0188311D5249696
:100AB600CF93DF9310E01A9302DBDF91CF91CF93B0
:100AC600DF9310919D001A930DDBDF91CF91CF93A9
:100AD600DF9310919C001A9317DBDF91CF9110E002
:100AE600FBD310919D000AD410919C0010D4CF9393
:100AF600DF9310919C001A9310919D001A931FEF9B
:100B06001A9397DBDF91CF9110E010937D0010913F
:100B16007D00112309F481C01FEF00919900002385
:100B260009F010951F9310917D000F91102311234A
:100B360009F473C0CF93DF9310E005E01A930A938C
:100B460010E00FE01A930A93A6D4DF91CF91102FED
:100B560010939900EAE0F0E0FA93EA9310E010832C
:100B66001BE01A931081088101171FEF08F0112767
:100B7600112309F033C0E1E8F0E0EF93FF931A2D5B
:100B8600012F1127000F111FFF91EF91E00FF11FA9
:100B9600EF93FF93E1E8F0E0EF93FF931A2D012F17
:100BA6001127000F111FFF91EF91E00FF11F019127
:100BB60011910F931F935CD43F912F91020F131F36
:100BC6000F7F1F70FF91EF9101931193E981FA81D5
:100BD600108113951083112309F0C5CF2396112791
:100BE60000919A0070E0701720F40A9500939A001D
:100BF6001FEF1095112309F410C010E010937D002B
:100C0600CF93DF9310919C001A9310919D001A9335
:100C160010E01A930EDBDF91CF9118CE0000FECFC5
:100C2600F89410E00FEC1EBF0DBF1127E0E1F0E0D5
:100C3600A0E0B0E031960000319711F01D93FCCF93
:100C4600A0E6B0E0E0E0F4E031960000319711F064
:100C56001D93FCCFC1E0D1E0F8941FE7412212EBCF
:100C66001093600012BF15E013BF11E019BF10E02A
:100C760010934F0018E010934E001093760010E08A
:100C86000FEF10934B0000934A00109378000093E7
:100C9600770010E210B91FEF10937A004424552410
:100CA600A6CDEF93FF930F931F931FB71F9310913A
:100CB600600002B7100F12BF1FE7412200917900B2
:100CC600002319F00A9500937900AF93BF93E1E6EC
:100CD600F0E0A081B1811196A083B183A13751F4D0
:100CE600B23041F4A281B3811197A283B383112755
:100CF60010831183A281B381119604E610E0A01738
:100D0600B10738F0A01BB11BA283B383BF91AF918B
:100D160005C0A283B383BF91AF9128C02F9322272A
:100D2600E5E6F0E01081018113951C3308F412C04A
:100D360010E003951193216011810C3368F000E0F7
:100D46001395019322600181183120F010E003957C
:100D5600119303C0108301C000832F9369D92F918B
:100D66002F93217009F060D92F912F91BA98AF93E4
:100D7600BF93E9E6F0E01081B29B03C0147021F442
:100D860072C1147009F06FC11081A4E01A27108394
:100D9600147009F036C0A381B48104E610E0A017F0
:100DA600B10740F105810A3319F01081177F1083CE
:100DB60000E00583108113FF12C0A1E6B0E010E049
:100DC6001D931D931D931D93108110681093680049
:100DD600108315811D9316811D9317811D93108114
:100DE6001860108300E00683078300870187028767
:100DF600038703C005810395058300E00183028311
:100E060032C110811C7F1083A181B281AA50B040EB
:100E160020F4A19509F4BA95B09504E010E00A17FC
:100E26001B0720F010811160108311C0A181B281CF
:100E3600A451B04020F4A19509F4BA95B09504E008
:100E460010E00A171B0718F010811260108310813A
:100E5600137041F40081077F00830485015008F078
:100E66000487FEC00485039509F00487123009F053
:100E7600E1C0108100E1102710831581113119F4AA
:100E8600008100640083123119F400810F7B008316
:100E9600153121F406810F5F0683CCC0163121F48B
:100EA60006810E5F0683C6C0173121F406810C5FEA
:100EB6000683C0C0183121F40681085F0683BAC0D4
:100EC600193121F40681065F0683B4C01A3121F474
:100ED60006810C5E0683AEC01B3121F40681085DD7
:100EE6000683A8C01D3121F407810F5F0783A2C0C6
:100EF6001E3121F407810E5F07839CC01F3121F448
:100F060007810C5F078396C0103221F40781085FC2
:100F1600078390C0113221F40781065F07838AC0D8
:100F2600123221F407810C5E078384C0143221F447
:100F360000850F5F00877EC0153221F400850E5FA5
:100F4600008778C0163221F400850C5F008772C0D6
:100F5600173221F40085085F00876CC0183221F42F
:100F66000085065F008766C0193221F400850C5E95
:100F7600008760C01A3221F403850F5F03875AC0C9
:100F86001B3221F403850E5F038754C01C3221F403
:100F960003850C5F03874EC01D3221F401850F5F68
:100FA600018748C01E3221F401850E5F018742C0C9
:100FB6001F3221F401850C5F01873CC0103321F4F8
:100FC6000185085F018736C0113321F40185065F6C
:100FD600018730C0123321F402850F5F02872AC0D1
:100FE600133321F402850E5F028724C0143321F4E3
:100FF60002850C5F02871EC0153321F40285085F47
:10100600028718C0163321F40285065F028712C0D4
:10101600173321F402850C5E02870CC0183321F4C5
:101026000285085D028706C0193321F40285005B3C
:10103600028700C0108114FF09C005810C3121F020
:10104600033211F00A3311F4177F1083058104313E
:1010560021F00C3111F00A3319F410811F7E108330
:101066001127138314831081147031F0A381B48186
:101076001196A383B48305C0A181B2811196A18381
:10108600B28308EE13E0A017B10718F0002700831B
:101096000487BF91AF9110919900112319F0115057
:1010A6001093990010E8412A1F911FBF1F910F91BD
:1010B600FF91EF911895EF93FF930F931F931FB72F
:1010C6001F93AED71F911FBF1F910F91FF91EF91F5
:1010D600189510E010937A0011B11C7F103011F4AE
:1010E60010E916BF14EA16BF1AE01093790016B776
:1010F600107831F4109179001123C9F716BF40C05A
:1011060011B11C7F183009F43BC038C011B11C7FE7
:10111600183FE1F3103019F410E916BF000004E996
:1011260006BF1FEF10937A00089543B914E816BF5F
:101136001AE01093790016B7107829F41091790007
:101146001123C9F71DC011B11C7F1832B9F018312F
:10115600A9F0103499F014C014EC1197BAF209F4FE
:1011660014E816BF16B717FFFDCF11B11C7F18354F
:1011760011F0103529F413B11193EECF1FEF089536
:1011860011B11C7F103011F410E916BF10E008955C
:10119600412F9FDF8894441FC8DFB12FB7DF1B2F75
:1011A600089597DF0894441FC0DF112321F0D4DF90
:1011B600112309F0E3CFE4DF0FEF00937A000895DF
:1011C60088DF8894441FB1DF1123E1F0432FADDFA0
:1011D6001123C1F040FA26F4422FA7DF112391F024
:1011E600AA2311F4BB2361F0552311F4419106C0E3
:1011F600513011F4459102C0AED031961197EDCF22
:1012060085DFBCCFBDDF0FEF00937A00112708956D
:10121600E89445F800E210E020E030E07B816A8146
:1012260059814881C1D036952795179507953695EA
:1012360027951795079541E00FC043953695279555
:10124600179507953695279517950795443020F4F9
:101256003695279517950795222379F7332369F74E
:10126600512F463010F41FEF089510E008952DD049
:10127600CFDF112309F40895152FF89410934B002E
:1012860000934A0010917600187F142B10934E009D
:101296001093760047FC78941FEF089520E0F894A9
:1012A60020934D0020934C0010915800106110932C
:1012B6005800109159001061109359001091760052
:1012C60010934E0047FC7894089510E010934E005A
:1012D60008951091650008951C3308F010E0F89405
:1012E600E1E6F0E0148310E011931193119311934A
:1012F60047FC789408951091660008951C3308F011
:1013060010E0109366000895109167000895183153
:1013160008F010E010936700089511270091690006
:1013260007FD1095089511270091680006FD109598
:1013360008951091750008952150304018F01191CC
:101346001D93FACF089547FC7894E199FCCFF89461
:10135600E199F9CF0895F7DFEEBBFFBBE09A0000F5
:101366004DB347FC789408953F912F91012F1F911B
:101376002F933F93332729E0111F2A9511F4032F4A
:101386000895331F301B18F4300F8894F5CF089456
:10139600F3CFD801F9011F910F917F916F915F9162
:1013A6004F910F931F9302C0D801F90145FACEF46D
:1013B6008F2F8727E89487FF45F8F7FF08C0A09589
:1013C600B095E095F095AF5FBF4FEF4FFF4F77FFBA
:1013D60008C040955095609570954F5F5F4F6F4F71
:1013E6007F4F992788271124002410E27695679568
:1013F6005795479520F48A0F9B1F0E1E1F1E1794A4
:1014060007949795879577956795579547951A9574
:1014160089F78A019B01402D512D45FA86F401502A
:101426001040204030408040904040405040209541
:101436003095109500958095909540955095089516
:10144600012FF5E5F123169515751F0FF3E3F1232B
:101456001695169513731F0FFFE0F1231695169533
:10146600169516951F701F0F117009F01FEF08953E
:10147600772031F4882021F413EB712E10E4812EAD
:10148600172D107DDDDF73FC1095111F771C881C4E
:10149600072D182D0895ECDF2A813B81A881B9819B
:1014A600A217B307A1F020F4AA81BB812881398154
:1014B600FD01E21BF30B0217130718F40E0F1F1F93
:1014C600F7CFA017B10718F40E1B1F0BFACF08951C
:1014D600EA81FB8100812981021718F01FEF08813C
:1014E60002C00395112700830895012F0F70105134
:1014F60010F0065FFCCF102F089500271A5010F049
:0C150600005FFCCF165F100F08951895D1
:1000000012C686CA85CA84CA83CA82CA57C880CA29
:100010007FCA4AC67DCA7CCA7BCA7ACA79CA78CAEC
:0600200077CA76CA75CA1A
:00000001FF
